:1000000071C0000090C000008EC000000C94081960
:100010000C941F190C9434190C94BA1A84C0000063
:1000200082C0000080C000007EC000007CC00000D4
:100030007AC0000078C0000076C0000074C00000E4
:1000400072C0000070C000006EC000006CC00000F4
:100050006AC0000068C0000066C0000064C0000004
:1000600062C0000060C000005EC000005CC0000014
:100070005AC0000058C0000056C0000054C0000024
:1000800052C0000050C000004EC000004CC0000034
:100090004AC0000048C0000046C0000044C0000044
:1000A00042C0000040C000003EC000003CC0000054
:1000B0003AC0000038C0000036C0000034C0000064
:1000C00032C0000030C000002EC000002CC0000074
:1000D0002AC0000028C0000026C0000024C0000084
:1000E00022C0000011241FBECFEFD1E2DEBFCDBF82
:1000F00000E00CBF17E0A0E0B2E0E2EBF6E300E0C6
:100100000BBF02C007900D92A430B107D9F727E0CA
:10011000A4E0B7E001C01D92A53EB207E1F70E943E
:10012000D3170C94571B6CCF87B1807F87B988B1E8
:10013000806288B988B18F7B88B982E08A95F1F7AF
:1001400000C088B1806888B992E09A95F1F700C044
:1001500086B18295807F92E09A95F1F700C098B1C0
:100160009F7798B995E09A95F1F7000098B190685B
:1001700098B992E09A95F1F700C096B1807892E034
:100180009A95F1F700C098B19F7798B995E09A9544
:10019000F1F700008111D5CF88B18F7D88B987B183
:1001A0008F6087B90895282F22952F708F70611165
:1001B00004C098B19F7B98B903C098B1906498B976
:1001C00092E09A95F1F700C098B1906898B998B10B
:1001D000907F922B98B995E09A95F1F7000098B12D
:1001E0009F7798B995E09A95F1F7000098B19068DB
:1001F00098B998B1907F892B88B985E08A95F1F7F5
:10020000000088B18F7788B995E09A95F1F70000E2
:100210008BCF0895CF93C82F2FEF86E791E0215021
:1002200080409040E1F700C0000087B18F6087B93F
:1002300087B1806887B987B1806487B987B18062E8
:1002400087B988B1807F88B988B18F7788B988B13C
:100250008F7D88B988B18F7B88B900C000C000004D
:1002600088B1806888B988B1826088B925E02A950C
:10027000F1F7000088B18F7788B985E08A95F1F7AA
:10028000000052DF60E08C2F8C608DDF60E088E240
:100290008ADFCF910895CF93DF93EC0103C061E033
:1002A00082DF219688818111FACFDF91CF91089565
:1002B000EF92FF920F931F93CF93DF9300D01F9283
:1002C0001F92CDB7DEB77B01FE01319625E0DF013D
:1002D0001D922A95E9F724E030E00FC06AE070E053
:1002E0000E94301BE1E0F0E0EC0FFD1FE20FF31F76
:1002F0008083862F972F21503109009779F7BFEF20
:10030000EB16FB0681F403C00F5F1F4F02C000E035
:1003100010E0E1E0F0E0EC0FFD1FE00FF11F2081A5
:10032000222391F304C005E010E00E191F09992360
:1003300084F461E08DE237DF0CC0E1E0F0E0EC0F27
:10034000FD1FE00FF11F808161E0805D2CDF0F5FFA
:100350001F4F053011058CF30F900F900F900F90E9
:100360000F90DF91CF911F910F91FF90EF90089523
:10037000883228F46111806460E0806814CF0895A9
:10038000E1E6F0E080E8808381E08083E1E9F0E06D
:1003900080818160808311B810BA8FEF80930A0149
:1003A00084B987B91AB8109201011DB88FEF93E094
:1003B00090930D0780930C0783E02CDF60E081E0D1
:1003C000F2DEF8948DB38C638DBBE9E6F0E08081BA
:1003D000806C8083AAE6B0E08C918B608C938081E6
:1003E0008063808378940895EAE7F0E080818068F4
:1003F0008083808180628083ACE7B0E08C918064F0
:100400008C9380818064808308959091D80698139E
:1004100002C095B908952091D906821302C025B96A
:100420000895811106C085B1981302C025B90895B9
:1004300095B90895FC01209178008091790090E0B1
:10044000982F8827820F911D90930F0780930E0796
:1004500020910E0730910F0780910C0790910D07A6
:100460002817390740F480910E0790910F07909359
:100470000D0780930C07A1E9B0E08C9188608C9304
:1004800088EE93E0909399008093980010929500E5
:100490001092940088B3826088BB60E070E027C04F
:1004A000909178002091790030E0322F2227290F97
:1004B000311D30930F0720930E0740910E07509186
:1004C0000F0720910C0730910D074217530740F496
:1004D00080910E0790910F0790930D0780930C0762
:1004E000C19B05C088B3826088BB6F5F7F4F6E176A
:1004F0007F07B4F208952091E3073091E40721309B
:10050000310559F42091130222B994DF84E090E080
:100510009093E4078093E30708952091E3073091D7
:10052000E4072430310559F42091100222B982DF0A
:1005300083E090E09093E4078093E307089520918F
:10054000E3073091E4072330310559F4209111027B
:1005500022B970DF82E090E09093E4078093E30794
:1005600008952091E3073091E4072230310551F4DA
:100570002091120222B95EDF81E090E09093E407BF
:100580008093E3070895CF93DF9303C080EA90E060
:10059000B2DF4999FBCFC0E0D0E004C080EA90E030
:1005A000AADF2196C830D105CCF380910402909146
:1005B00005029093090780930807DF91CF91089572
:1005C0000F931F93CF93DF93C1E0D0E000E010E0E2
:1005D00042C0C130D10569F48091170282B9F80197
:1005E000EE0FFF1FEC58F94F8081918123DF219698
:1005F00030C0C230D10569F48091160282B9F80189
:10060000EE0FFF1FEC58F94F8081918113DF219687
:1006100020C0C330D10569F48091150282B9F80178
:10062000EE0FFF1FEC58F94F8081918103DF219677
:1006300010C0C430D10569F48091140282B9F80168
:10064000EE0FFF1FEC58F94F80819181F3DEC1E07E
:10065000D0E00F5F1F4F023311050CF4BACF82E0D8
:1006600090E09093E4078093E3078DDFDF91CF91D3
:100670001F910F910895CF93DF93C0E0D0E060C049
:100680008091E3079091E407019791F48091130220
:1006900082B9FE01EE0FFF1FEC58F94F8081918166
:1006A000C9DE84E090E09093E4078093E30747C0BD
:1006B0008091E3079091E407049791F480911002F0
:1006C00082B9FE01EE0FFF1FEC58F94F8081918136
:1006D000B1DE83E090E09093E4078093E3072FC0BE
:1006E0008091E3079091E407039791F480911102C0
:1006F00082B9FE01EE0FFF1FEC58F94F8081918106
:1007000099DE82E090E09093E4078093E30717C0BE
:100710008091E3079091E407029789F48091120297
:1007200082B9FE01EE0FFF1FEC58F94F80819181D5
:1007300081DE81E090E09093E4078093E3072196C7
:10074000C931D1050CF49CCF8091D90685B9C9E196
:10075000D0E060C08091E3079091E407019791F4A5
:100760008091130282B9FE01EE0FFF1FEC58F94F82
:10077000808191815FDE84E090E09093E407809334
:10078000E30747C08091E3079091E407049791F451
:100790008091100282B9FE01EE0FFF1FEC58F94F55
:1007A0008081918147DE83E090E09093E40780931D
:1007B000E3072FC08091E3079091E407039791F43A
:1007C0008091110282B9FE01EE0FFF1FEC58F94F24
:1007D000808191812FDE82E090E09093E407809306
:1007E000E30717C08091E3079091E407029789F42B
:1007F0008091120282B9FE01EE0FFF1FEC58F94FF3
:100800008081918117DE81E090E09093E4078093EE
:10081000E3072196C233D1050CF49CCFDF91CF9131
:100820000895CF93DF93C0E0D0E060C08091E307EC
:100830009091E407019791F48091130282B9FE012F
:10084000EE0FFF1FE455FA4F80819181F3DD84E0C4
:1008500090E09093E4078093E30747C08091E3071B
:100860009091E407049791F48091100282B9FE01FF
:10087000EE0FFF1FE455FA4F80819181DBDD83E0AD
:1008800090E09093E4078093E3072FC08091E30703
:100890009091E407039791F48091110282B9FE01CF
:1008A000EE0FFF1FE455FA4F80819181C3DD82E096
:1008B00090E09093E4078093E30717C08091E307EB
:1008C0009091E407029789F48091120282B9FE01A7
:1008D000EE0FFF1FE455FA4F80819181ABDD81E07F
:1008E00090E09093E4078093E3072196CB34D10501
:1008F0000CF49CCF8091D90685B9CBE4D0E060C0E0
:100900008091E3079091E407019791F4809113029D
:1009100082B9FE01EE0FFF1FE455FA4F80819181ED
:1009200089DD84E090E09093E4078093E30747C07B
:100930008091E3079091E407049791F4809110026D
:1009400082B9FE01EE0FFF1FE455FA4F80819181BD
:1009500071DD83E090E09093E4078093E3072FC07C
:100960008091E3079091E407039791F4809111023D
:1009700082B9FE01EE0FFF1FE455FA4F808191818D
:1009800059DD82E090E09093E4078093E30717C07D
:100990008091E3079091E407029789F48091120215
:1009A00082B9FE01EE0FFF1FE455FA4F808191815D
:1009B00041DD81E090E09093E4078093E307219686
:1009C000C436D1050CF49CCFDF91CF910895CF931D
:1009D000DF93C0E0D0E060C08091E3079091E4072E
:1009E000019791F48091170282B9FE01EE0FFF1F6B
:1009F000EC58F94F808191811DDD82E090E0909369
:100A0000E4078093E30747C08091E3079091E407F0
:100A1000029791F48091160282B9FE01EE0FFF1F3A
:100A2000EC58F94F8081918105DD83E090E090934F
:100A3000E4078093E3072FC08091E3079091E407D8
:100A4000039791F48091150282B9FE01EE0FFF1F0A
:100A5000EC58F94F80819181EDDC84E090E0909337
:100A6000E4078093E30717C08091E3079091E407C0
:100A7000049789F48091140282B9FE01EE0FFF1FE2
:100A8000EC58F94F80819181D5DC81E090E0909322
:100A9000E4078093E3072196C931D1050CF49CCF7C
:100AA0008091D90685B9C9E1D0E060C08091E307A3
:100AB0009091E407019791F48091170282B9FE01A9
:100AC000EE0FFF1FEC58F94F80819181B3DC82E07B
:100AD00090E09093E4078093E30747C08091E30799
:100AE0009091E407029791F48091160282B9FE0179
:100AF000EE0FFF1FEC58F94F808191819BDC83E062
:100B000090E09093E4078093E3072FC08091E30780
:100B10009091E407039791F48091150282B9FE0148
:100B2000EE0FFF1FEC58F94F8081918183DC84E048
:100B300090E09093E4078093E30717C08091E30768
:100B40009091E407049789F48091140282B9FE0120
:100B5000EE0FFF1FEC58F94F808191816BDC81E033
:100B600090E09093E4078093E3072196C233D10588
:100B70000CF49CCFDF91CF910895CF93DF93C0E029
:100B8000D0E060C08091E3079091E407019791F471
:100B90008091130282B9FE01EE0FFF1FE45EFB4F4E
:100BA0008081918147DC84E090E09093E40780931A
:100BB000E30747C08091E3079091E407049791F41D
:100BC0008091100282B9FE01EE0FFF1FE45EFB4F21
:100BD000808191812FDC83E090E09093E407809303
:100BE000E3072FC08091E3079091E407039791F406
:100BF0008091110282B9FE01EE0FFF1FE45EFB4FF0
:100C00008081918117DC82E090E09093E4078093EB
:100C1000E30717C08091E3079091E407029789F4F6
:100C20008091120282B9FE01EE0FFF1FE45EFB4FBE
:100C300080819181FFDB81E090E09093E4078093D5
:100C4000E3072196C431D1050CF49CCF8091D906DD
:100C500085B9C4E1D0E060C08091E3079091E407DA
:100C6000019791F48091130282B9FE01EE0FFF1FEC
:100C7000E45EFB4F80819181DDDB84E090E0909326
:100C8000E4078093E30747C08091E3079091E4076E
:100C9000049791F48091100282B9FE01EE0FFF1FBC
:100CA000E45EFB4F80819181C5DB83E090E090930F
:100CB000E4078093E3072FC08091E3079091E40756
:100CC000039791F48091110282B9FE01EE0FFF1F8C
:100CD000E45EFB4F80819181ADDB82E090E09093F8
:100CE000E4078093E30717C08091E3079091E4073E
:100CF000029789F48091120282B9FE01EE0FFF1F64
:100D0000E45EFB4F8081918195DB81E090E09093E0
:100D1000E4078093E3072196C133D1050CF49CCFFF
:100D20008091E3079091E407019779F48091130291
:100D300082B980910E0290910F027CDB84E090E0FA
:100D40009093E4078093E3073EC08091E30790917E
:100D5000E407049779F48091100282B980910E0221
:100D600090910F0267DB83E090E09093E40780931B
:100D7000E30729C08091E3079091E407039779F492
:100D80008091110282B980910E0290910F0252DB84
:100D900082E090E09093E4078093E30714C0809191
:100DA000E3079091E407029771F48091120282B9EF
:100DB00080910E0290910F023DDB81E090E09093D4
:100DC000E4078093E307DF91CF910895CF93DF93FA
:100DD000C0E0D0E060C08091E3079091E407019704
:100DE00091F48091130282B9FE01EE0FFF1FE25BC6
:100DF000FC4F808191811EDB84E090E09093E407BA
:100E00008093E30747C08091E3079091E40704973C
:100E100091F48091100282B9FE01EE0FFF1FE25B98
:100E2000FC4F8081918106DB83E090E09093E407A2
:100E30008093E3072FC08091E3079091E407039725
:100E400091F48091110282B9FE01EE0FFF1FE25B67
:100E5000FC4F80819181EEDA82E090E09093E4078C
:100E60008093E30717C08091E3079091E40702970E
:100E700089F48091120282B9FE01EE0FFF1FE25B3E
:100E8000FC4F80819181D6DA81E090E09093E40775
:100E90008093E3072196C634D1050CF49CCF809152
:100EA000D90685B9C6E4D0E060C08091E30790918F
:100EB000E407019791F48091130282B9FE01EE0FCD
:100EC000FF1FE25BFC4F80819181B4DA84E090E007
:100ED0009093E4078093E30747C08091E3079091E4
:100EE000E407049791F48091100282B9FE01EE0F9D
:100EF000FF1FE25BFC4F808191819CDA83E090E0F0
:100F00009093E4078093E3072FC08091E3079091CB
:100F1000E407039791F48091110282B9FE01EE0F6C
:100F2000FF1FE25BFC4F8081918184DA82E090E0D8
:100F30009093E4078093E30717C08091E3079091B3
:100F4000E407029789F48091120282B9FE01EE0F44
:100F5000FF1FE25BFC4F808191816CDA81E090E0C1
:100F60009093E4078093E3072196C436D1050CF4EF
:100F70009CCF8091E3079091E407019779F48091E9
:100F8000130282B980910E0290910F0253DA84E02D
:100F900090E09093E4078093E3073EC08091E307DD
:100FA0009091E407049779F48091100282B98091BE
:100FB0000E0290910F023EDA83E090E09093E407F6
:100FC0008093E30729C08091E3079091E40703979A
:100FD00079F48091110282B980910E0290910F02F2
:100FE00029DA82E090E09093E4078093E30714C04D
:100FF0008091E3079091E407029771F480911202C7
:1010000082B980910E0290910F0214DA81E090E093
:101010009093E4078093E307DF91CF910895CF93F6
:10102000DF93C0E0D0E060C08091E3079091E407D7
:10103000019791F48091170282B9FE01EE0FFF1F14
:10104000E45EFB4F80819181F5D982E090E090933E
:10105000E4078093E30747C08091E3079091E4079A
:10106000029791F48091160282B9FE01EE0FFF1FE4
:10107000E45EFB4F80819181DDD983E090E0909325
:10108000E4078093E3072FC08091E3079091E40782
:10109000039791F48091150282B9FE01EE0FFF1FB4
:1010A000E45EFB4F80819181C5D984E090E090930C
:1010B000E4078093E30717C08091E3079091E4076A
:1010C000049789F48091140282B9FE01EE0FFF1F8C
:1010D000E45EFB4F80819181ADD981E090E09093F7
:1010E000E4078093E3072196C431D1050CF49CCF2B
:1010F0008091D90685B9C4E1D0E060C08091E30752
:101100009091E407019791F48091170282B9FE0152
:10111000EE0FFF1FE45EFB4F808191818BD982E04F
:1011200090E09093E4078093E30747C08091E30742
:101130009091E407029791F48091160282B9FE0122
:10114000EE0FFF1FE45EFB4F8081918173D983E036
:1011500090E09093E4078093E3072FC08091E3072A
:101160009091E407039791F48091150282B9FE01F2
:10117000EE0FFF1FE45EFB4F808191815BD984E01D
:1011800090E09093E4078093E30717C08091E30712
:101190009091E407049789F48091140282B9FE01CA
:1011A000EE0FFF1FE45EFB4F8081918143D981E008
:1011B00090E09093E4078093E3072196C233D10532
:1011C0000CF49CCF8091E3079091E407019779F4A8
:1011D0008091170282B980910E0290910F022AD954
:1011E00082E090E09093E4078093E3073EC0809113
:1011F000E3079091E407029779F48091160282B98F
:1012000080910E0290910F0215D983E090E09093A7
:10121000E4078093E30729C08091E3079091E407F6
:10122000039779F48091150282B980910E02909112
:101230000F0200D984E090E09093E4078093E307E5
:1012400014C08091E3079091E407049771F48091B2
:10125000140282B980910E0290910F02EBD881E0C6
:1012600090E09093E4078093E307DF91CF91089596
:10127000CF93DF93C0E0D0E060C08091E30790910E
:10128000E407019791F48091130282B9FE01EE0FF9
:10129000FF1FEC51FD4F80819181CCD884E090E01C
:1012A0009093E4078093E30747C08091E307909110
:1012B000E407049791F48091100282B9FE01EE0FC9
:1012C000FF1FEC51FD4F80819181B4D883E090E005
:1012D0009093E4078093E3072FC08091E3079091F8
:1012E000E407039791F48091110282B9FE01EE0F99
:1012F000FF1FEC51FD4F808191819CD882E090E0EE
:101300009093E4078093E30717C08091E3079091DF
:10131000E407029789F48091120282B9FE01EE0F70
:10132000FF1FEC51FD4F8081918184D881E090E0D6
:101330009093E4078093E3072196CA30D1050CF41B
:101340009CCF8091D90685B9CAE0D0E060C0809179
:10135000E3079091E407019791F48091130282B919
:10136000FE01EE0FFF1FEC51FD4F8081918162D88D
:1013700084E090E09093E4078093E30747C0809176
:10138000E3079091E407049791F48091100282B9E9
:10139000FE01EE0FFF1FEC51FD4F808191814AD875
:1013A00083E090E09093E4078093E3072FC080915F
:1013B000E3079091E407039791F48091110282B9B9
:1013C000FE01EE0FFF1FEC51FD4F8081918132D85D
:1013D00082E090E09093E4078093E30717C0809148
:1013E000E3079091E407029789F48091120282B991
:1013F000FE01EE0FFF1FEC51FD4F808191811AD845
:1014000081E090E09093E4078093E3072196C13355
:10141000D1050CF49CCF8091E3079091E4070197EC
:1014200079F48091130282B980910E0290910F029B
:1014300001D884E090E09093E4078093E30741C0F3
:101440008091E3079091E407049781F48091100262
:1014500082B980910E0290910F020E941A0283E0DD
:1014600090E09093E4078093E3072BC08091E3071B
:101470009091E407039781F48091110282B98091E1
:101480000E0290910F020E941A0282E090E0909367
:10149000E4078093E30715C08091E3079091E40788
:1014A000029779F48091120282B980910E02909194
:1014B0000F020E941A0281E090E09093E40780936B
:1014C000E307DF91CF910895CF93DF93C0E0D0E0A1
:1014D00064C08091E3079091E407019799F48091AB
:1014E000130282B9FE01EE0FFF1FE85EFD4F8081FF
:1014F00091810E941A0284E090E09093E407809327
:10150000E3074AC08091E3079091E407049799F4B8
:101510008091100282B9FE01EE0FFF1FE85EFD4FC1
:10152000808191810E941A0283E090E09093E40709
:101530008093E30731C08091E3079091E40703971C
:1015400099F48091110282B9FE01EE0FFF1FE85E4F
:10155000FD4F808191810E941A0282E090E0909379
:10156000E4078093E30718C08091E3079091E407B4
:10157000029791F48091120282B9FE01EE0FFF1FD3
:10158000E85EFD4F808191810E941A0281E090E027
:101590009093E4078093E3072196CC33D1050CF4B4
:1015A00098CF8091D90685B9CCE3D0E064C0809112
:1015B000E3079091E407019799F48091130282B9AF
:1015C000FE01EE0FFF1FE85EFD4F808191810E94BA
:1015D0001A0284E090E09093E4078093E3074AC006
:1015E0008091E3079091E407049799F480911002A9
:1015F00082B9FE01EE0FFF1FE85EFD4F80819181F1
:101600000E941A0283E090E09093E4078093E3073E
:1016100031C08091E3079091E407039799F480919A
:10162000110282B9FE01EE0FFF1FE85EFD4F8081BF
:1016300091810E941A0282E090E09093E4078093E7
:10164000E30718C08091E3079091E407029791F4B3
:101650008091120282B9FE01EE0FFF1FE85EFD4F7E
:10166000808191810E941A0281E090E09093E407CA
:101670008093E3072196C336D1050CF498CF80916F
:10168000E3079091E407019781F48091130282B9F6
:1016900080910E0290910F020E941A0284E090E065
:1016A0009093E4078093E30741C08091E307909112
:1016B000E407049781F48091100282B980910E02B0
:1016C00090910F020E941A0283E090E09093E40749
:1016D0008093E3072BC08091E3079091E407039781
:1016E00081F48091110282B980910E0290910F02D3
:1016F0000E941A0282E090E09093E4078093E3074F
:1017000015C08091E3079091E407029779F48091E6
:10171000120282B980910E0290910F020E941A0269
:1017200081E090E09093E4078093E307DF91CF910D
:101730000895CF93DF93C0E0D0E064C08091E307C9
:101740009091E407019799F48091170282B9FE0104
:10175000EE0FFF1FEC51FD4F808191810E941A0214
:1017600082E090E09093E4078093E3074AC0809181
:10177000E3079091E407029799F48091160282B9E9
:10178000FE01EE0FFF1FEC51FD4F808191810E9401
:101790001A0283E090E09093E4078093E30731C05E
:1017A0008091E3079091E407039799F480911502E3
:1017B00082B9FE01EE0FFF1FEC51FD4F8081918138
:1017C0000E941A0284E090E09093E4078093E3077C
:1017D00018C08091E3079091E407049791F48091F9
:1017E000140282B9FE01EE0FFF1FEC51FD4F808104
:1017F00091810E941A0281E090E09093E407809327
:10180000E3072196CA30D1050CF498CF8091D90610
:1018100085B9CAE0D0E064C08091E3079091E40705
:10182000019799F48091170282B9FE01EE0FFF1F14
:10183000EC51FD4F808191810E941A0282E090E07C
:101840009093E4078093E3074AC08091E307909167
:10185000E407029799F48091160282B9FE01EE0F17
:10186000FF1FEC51FD4F808191810E941A0283E09D
:1018700090E09093E4078093E30731C08091E30701
:101880009091E407039799F48091150282B9FE01C3
:10189000EE0FFF1FEC51FD4F808191810E941A02D3
:1018A00084E090E09093E4078093E30718C0809170
:1018B000E3079091E407049791F48091140282B9B0
:1018C000FE01EE0FFF1FEC51FD4F808191810E94C0
:1018D0001A0281E090E09093E4078093E307219659
:1018E000C133D1050CF498CF8091E3079091E407C0
:1018F000019781F48091170282B980910E02909134
:101900000F020E941A0282E090E09093E407809315
:10191000E30741C08091E3079091E407029781F4C7
:101920008091160282B980910E0290910F020E945E
:101930001A0283E090E09093E4078093E3072BC0C2
:101940008091E3079091E407039781F48091150259
:1019500082B980910E0290910F020E941A0284E0D7
:1019600090E09093E4078093E30715C08091E3072C
:101970009091E407049779F48091140282B98091E0
:101980000E0290910F020E941A0281E090E0909363
:10199000E4078093E307DF91CF910895CF93DF931E
:1019A000C0E0D0E064C08091E3079091E407019724
:1019B00099F48091130282B9FE01EE0FFF1FE85BDC
:1019C000FA4F808191810E941A0284E090E0909306
:1019D000E4078093E3074AC08091E3079091E4070E
:1019E000049799F48091100282B9FE01EE0FFF1F57
:1019F000E85BFA4F808191810E941A0283E090E0B7
:101A00009093E4078093E30731C08091E3079091BE
:101A1000E407039799F48091110282B9FE01EE0F59
:101A2000FF1FE85BFA4F808191810E941A0282E0D9
:101A300090E09093E4078093E30718C08091E30758
:101A40009091E407029791F48091120282B9FE010D
:101A5000EE0FFF1FE85BFA4F808191810E941A020E
:101A600081E090E09093E4078093E3072196CA30E9
:101A7000D1050CF498CF8091D90685B9CAE0D0E0A1
:101A800064C08091E3079091E407019799F48091F5
:101A9000130282B9FE01EE0FFF1FE85BFA4F80814F
:101AA00091810E941A0284E090E09093E407809371
:101AB000E3074AC08091E3079091E407049799F403
:101AC0008091100282B9FE01EE0FFF1FE85BFA4F12
:101AD000808191810E941A0283E090E09093E40754
:101AE0008093E30731C08091E3079091E407039767
:101AF00099F48091110282B9FE01EE0FFF1FE85B9D
:101B0000FA4F808191810E941A0282E090E09093C6
:101B1000E4078093E30718C08091E3079091E407FE
:101B2000029791F48091120282B9FE01EE0FFF1F1D
:101B3000E85BFA4F808191810E941A0281E090E077
:101B40009093E4078093E3072196C233D1050CF408
:101B500098CFDF91CF910895CF93DF93C0E0D0E08D
:101B600064C08091E3079091E407019799F4809114
:101B7000130282B9FE01EE0FFF1FE058FB4F808178
:101B800091810E941A0284E090E09093E407809390
:101B9000E3074AC08091E3079091E407049799F422
:101BA0008091100282B9FE01EE0FFF1FE058FB4F3B
:101BB000808191810E941A0283E090E09093E40773
:101BC0008093E30731C08091E3079091E407039786
:101BD00099F48091110282B9FE01EE0FFF1FE058C7
:101BE000FB4F808191810E941A0282E090E09093E5
:101BF000E4078093E30718C08091E3079091E4071E
:101C0000029791F48091120282B9FE01EE0FFF1F3C
:101C1000E058FB4F808191810E941A0281E090E0A0
:101C20009093E4078093E3072196CC33D1050CF41D
:101C300098CF8091D90685B9CCE3D0E064C080917B
:101C4000E3079091E407019799F48091130282B918
:101C5000FE01EE0FFF1FE058FB4F808191810E9433
:101C60001A0284E090E09093E4078093E3074AC06F
:101C70008091E3079091E407049799F48091100212
:101C800082B9FE01EE0FFF1FE058FB4F808191816A
:101C90000E941A0283E090E09093E4078093E307A8
:101CA00031C08091E3079091E407039799F4809104
:101CB000110282B9FE01EE0FFF1FE058FB4F808139
:101CC00091810E941A0282E090E09093E407809351
:101CD000E30718C08091E3079091E407029791F41D
:101CE0008091120282B9FE01EE0FFF1FE058FB4FF8
:101CF000808191810E941A0281E090E09093E40734
:101D00008093E3072196C436D1050CF498CFDF9178
:101D1000CF910895CF93DF93C0E0D0E064C080916D
:101D2000E3079091E407019799F48091170282B933
:101D3000FE01EE0FFF1FE85BFA4F808191810E9448
:101D40001A0282E090E09093E4078093E3074AC090
:101D50008091E3079091E407029799F4809116022D
:101D600082B9FE01EE0FFF1FE85BFA4F808191817F
:101D70000E941A0283E090E09093E4078093E307C7
:101D800031C08091E3079091E407039799F4809123
:101D9000150282B9FE01EE0FFF1FE85BFA4F80814A
:101DA00091810E941A0284E090E09093E40780936E
:101DB000E30718C08091E3079091E407049791F43A
:101DC0008091140282B9FE01EE0FFF1FE85BFA4F0B
:101DD000808191810E941A0281E090E09093E40753
:101DE0008093E3072196CA30D1050CF498CF8091F7
:101DF000D90685B9CAE0D0E064C08091E30790912C
:101E0000E407019799F48091170282B9FE01EE0F61
:101E1000FF1FE85BFA4F808191810E941A0282E0E5
:101E200090E09093E4078093E3074AC08091E30732
:101E30009091E407029799F48091160282B9FE010D
:101E4000EE0FFF1FE85BFA4F808191810E941A021A
:101E500083E090E09093E4078093E30731C08091A2
:101E6000E3079091E407039799F48091150282B9F2
:101E7000FE01EE0FFF1FE85BFA4F808191810E9407
:101E80001A0284E090E09093E4078093E30718C07F
:101E90008091E3079091E407049791F480911402F4
:101EA00082B9FE01EE0FFF1FE85BFA4F808191813E
:101EB0000E941A0281E090E09093E4078093E30788
:101EC0002196C233D1050CF498CFDF91CF910895BC
:101ED0002F923F924F925F926F927F928F929F923A
:101EE000AF92BF92CF92DF92EF92FF920F931F9328
:101EF000CF93DF93CDB7DEB765970FB6F894DEBF0B
:101F00000FBECDBFFC019B015A87498780910A070C
:101F100090910B07019690930B0780930A0780918D
:101F2000080790910907609006027090070223014C
:101F300061E08615970509F060E04091080750912F
:101F4000090781E04416550609F080E0209004025C
:101F50003090050238862F82CC24C3942E163F067B
:101F600009F0C12C262E282A2C202B8A71E062161B
:101F7000730609F070E08091080790910907E090DE
:101F80000002F0900102FA82E982BB24B394EE15BC
:101F9000FF0509F0B12C41E04816590609F040E070
:101FA0004B214B87A1E00F8118850217130709F019
:101FB000A0E0809108079091090741E04816590672
:101FC00009F040E04B214C874091020250910302FE
:101FD0005C834B83DD24D3942417350709F0D12C7F
:101FE00080910807909109072F8038843A8A298ABE
:101FF000B1E06E167F0609F0B0E041E0E988FA88AA
:102000008E159F0509F040E04B234D87809108070E
:102010009091090741E009891A890817190709F001
:1020200040E04B234E8781E049815A8124173507D0
:1020300009F080E02091080730910907AA24A394B1
:102040002B803C80E215F30509F0A12C91E0E98892
:10205000FA88E216F30609F090E09A219F87209112
:1020600008073091090751E009891A8902171307F7
:1020700009F050E05A21588B209108073091090748
:102080004B815C815E834D8351E02B803C80221527
:10209000330509F050E0852E8B22209108073091FE
:1020A000090751E0ED80FE80E216F30609F050E0EA
:1020B0005B235D8B009108071091090741E02D819A
:1020C0003E812017310709F040E04B2100910807BD
:1020D0001091090731E02D803E802016310609F06D
:1020E00030E03B21E0900807F090090709811A8150
:1020F00021E0E016F10609F020E02C21E09008072D
:10210000F090090791E00E151F0509F090E09C2161
:10211000E0900807F090090761E00E151F0509F02F
:1021200060E06A21E0900807F090090799249394F1
:102130000E151F0509F0912C9A20E0900807F090E9
:102140000907332433944E145F0409F0312CA32083
:10215000E0900807F090090751E05C8B29883A88E5
:102160002E143F0409F01C8A3C88B320E090080735
:10217000F090090751E05C8B2D803E802E143F04C7
:1021800009F01C8A3C88C320E0900807F0900907FA
:10219000332433940E151F0509F0312CB3212B88FD
:1021A0002722FB84FA222F28EC84ED202E28ED84B0
:1021B000EA222E28EE84E8222E28FF84F722F22835
:1021C00028882822F2288A228F285D895823852A88
:1021D0004A2348293D21432B2723242B9D21292BAA
:1021E0006723622B98226929AA22A62AB722BA2835
:1021F000C822CB2811F4BD2139F081E090E0909302
:1022000005078093040704C0109205071092040785
:10221000809104079091050731E0E984FA84EF2862
:1022200009F030E021E0892B09F020E0232309F4B4
:102230009CC180910807909109074816590609F03A
:102240005EC0659B20C0209178008091790090E06D
:10225000982F8827820F911D90930F0780930E0768
:1022600020910E0730910F0780910C0790910D0778
:102270002817390740F480910E0790910F0790932B
:102280000D0780930C076E167F0641F470920907C4
:10229000609208078091D90685B960C60F811885BC
:1022A0000E171F0759F40E941104809104029091A7
:1022B0000502909309078093080750C629813A8147
:1022C000E217F30759F40E943B03809100029091BA
:1022D0000102909309078093080740C64B815C81F7
:1022E000E417F50709F03AC60E94E704809102025C
:1022F0009091030290930907809308072FC680915D
:1023000008079091090729883A882816390609F0A4
:102310005EC0659B20C0209178008091790090E09C
:10232000982F8827820F911D90930F0780930E0797
:1023300020910E0730910F0780910C0790910D07A7
:102340002817390740F480910E0790910F0790935A
:102350000D0780930C076E167F0659F40E94110436
:1023600080910602909107029093090780930807D5
:10237000F5C5EF80F884EE16FF0641F4F0920907E8
:10238000E09208078091D90685B9E8C509811A81CC
:10239000E017F10759F40E94E70480910002909140
:1023A00001029093090780930807D8C52B813C81CF
:1023B000E217F30709F0D2C50E943B0380910202A5
:1023C000909103029093090780930807C7C58091F5
:1023D0000807909109074D815E814817590709F058
:1023E0005EC0659B20C0209178008091790090E0CC
:1023F000982F8827820F911D90930F0780930E07C7
:1024000020910E0730910F0780910C0790910D07D6
:102410002817390740F480910E0790910F07909389
:102420000D0780930C076E167F0659F40E943B033C
:102430008091060290910702909309078093080704
:102440008DC58F8198858E179F0759F40E94E704E8
:1024500080910402909105029093090780930807E8
:102460007DC529803A80E215F30559F40E941104D4
:1024700080910002909101029093090780930807D0
:102480006DC5EB80FC80EE15FF0509F067C5F09285
:102490000907E09208078091D90685B95FC5809148
:1024A0000807909109070817190709F057C5659B98
:1024B00020C0209178008091790090E0982F8827A3
:1024C000820F911D90930F0780930E0720910E07A6
:1024D00030910F0780910C0790910D07281739074D
:1024E00040F480910E0790910F0790930D07809311
:1024F0000C076E167F0659F40E94E70480910602CD
:1025000090910702909309078093080727C50F81D0
:1025100018850E171F0759F40E943B03809104028F
:1025200090910502909309078093080717C52981A8
:102530003A81E217F30741F4309309072093080723
:102540008091D90685B90AC54B815C81E417F507EE
:1025500009F004C50E9411048091020290910302C7
:102560009093090780930807F9C48091040790911C
:10257000050721E0019709F020E0322309F49CC10E
:1025800080910807909109074816590609F05EC026
:10259000659B20C0209178008091790090E0982F71
:1025A0008827820F911D90930F0780930E0720912B
:1025B0000E0730910F0780910C0790910D07281797
:1025C000390740F480910E0790910F0790930D0703
:1025D00080930C076E167F0641F470920907609293
:1025E00008078091D90685B9B9C48F8198858E175F
:1025F0009F0759F40E94E60680910402909105021B
:102600009093090780930807A9C429803A80E215AE
:10261000F30559F40E94BD058091000290910102DA
:10262000909309078093080799C4EB80FC80EE150E
:10263000FF0509F093C40E940F0880910202909157
:102640000302909309078093080788C480910807C4
:102650009091090729893A892817390709F05EC03E
:10266000659B20C0209178008091790090E0982FA0
:102670008827820F911D90930F0780930E0720915A
:102680000E0730910F0780910C0790910D072817C6
:10269000390740F480910E0790910F0790930D0732
:1026A00080930C076E167F0659F40E94E60680910F
:1026B00006029091070290930907809308074EC481
:1026C0004F8158854E175F0741F450930907409397
:1026D00008078091D90685B941C489819A81E81794
:1026E000F90759F40E940F088091000290910102AD
:1026F000909309078093080731C42B803C80E21532
:10270000F30509F02BC40E94BD058091020290914F
:102710000302909309078093080720C4809108075B
:1027200090910907ED80FE80E816F90609F05EC079
:10273000659B20C0209178008091790090E0982FCF
:102740008827820F911D90930F0780930E07209189
:102750000E0730910F0780910C0790910D072817F5
:10276000390740F480910E0790910F0790930D0761
:1027700080930C076E167F0659F40E94BD05809168
:102780000602909107029093090780930807E6C319
:102790000F8118850E171F0759F40E940F088091AA
:1027A0000402909105029093090780930807D6C30D
:1027B00029813A81E217F30759F40E94E6068091D5
:1027C0000002909101029093090780930807C6C305
:1027D0004B815C81E417F50709F0C0C350930907EA
:1027E000409308078091D90685B9B8C3809108073E
:1027F000909109070817190709F0B0C3659B20C01D
:10280000209178008091790090E0982F8827820F9E
:10281000911D90930F0780930E0720910E07309122
:102820000F0780910C0790910D072817390740F486
:1028300080910E0790910F0790930D0780930C07DE
:102840006E167F0659F40E940F088091060290913F
:102850000702909309078093080780C38F819885AA
:102860008E179F0759F40E94BD0580910402909134
:102870000502909309078093080770C329803A8066
:10288000E215F30541F43092090720920807809180
:10289000D90685B963C3EB80FC80EE15FF0509F00E
:1028A0005DC30E94E606809102029091030290931C
:1028B00009078093080752C3809104079091050788
:1028C00031E049855A854130510509F030E021E079
:1028D000019709F020E0232309F49CC180910807A7
:1028E000909109074816590609F05EC0659B20C003
:1028F000209178008091790090E0982F8827820FAE
:10290000911D90930F0780930E0720910E07309131
:102910000F0780910C0790910D072817390740F495
:1029200080910E0790910F0790930D0780930C07ED
:102930006E167F0641F47092090760920807809135
:10294000D90685B90BC38F8198858E179F0759F4D7
:102950000E94640A809104029091050290930907F5
:1029600080930807FBC229803A80E215F30559F4E9
:102970000E9438098091000290910102909309070A
:1029800080930807EBC2EB80FC80EE15FF0509F091
:10299000E5C20E94990B80910202909103029093EC
:1029A000090780930807DAC2809108079091090708
:1029B00029893A892817390709F05EC0659B20C02C
:1029C000209178008091790090E0982F8827820FDD
:1029D000911D90930F0780930E0720910E07309161
:1029E0000F0780910C0790910D072817390740F4C5
:1029F00080910E0790910F0790930D0780930C071D
:102A00006E167F0659F40E94640A80910602909126
:102A100007029093090780930807A0C24F81588549
:102A20004E175F0741F450930907409308078091C0
:102A3000D90685B993C289819A81E817F90759F4B3
:102A40000E94990B809100029091010290930907D6
:102A50008093080783C22B803C80E215F30509F0C0
:102A60007DC20E94380980910202909103029093E6
:102A700009078093080772C280910807909109079F
:102A8000ED80FE80E816F90609F05EC0659B20C067
:102A9000209178008091790090E0982F8827820F0C
:102AA000911D90930F0780930E0720910E07309190
:102AB0000F0780910C0790910D072817390740F4F4
:102AC00080910E0790910F0790930D0780930C074C
:102AD0006E167F0659F40E94380980910602909183
:102AE0000702909309078093080738C20F81188561
:102AF0000E171F0759F40E94990B809104029091C0
:102B00000502909309078093080728C229813A811A
:102B1000E217F30759F40E94640A80910002909131
:102B20000102909309078093080718C24B815C81CA
:102B3000E417F50709F012C25093090740930807FC
:102B40008091D90685B90AC280910807909109073A
:102B50000817190709F002C2659B20C02091780070
:102B60008091790090E0982F8827820F911D909393
:102B70000F0780930E0720910E0730910F07809169
:102B80000C0790910D072817390740F480910E0724
:102B900090910F0790930D0780930C076E167F0698
:102BA00059F40E94990B809106029091070290932C
:102BB000090780930807D2C18F8198858E179F07D8
:102BC00059F40E9438098091040290910502909373
:102BD000090780930807C2C129803A80E215F305EE
:102BE00041F430920907209208078091D90685B9EF
:102BF000B5C1EB80FC80EE15FF0509F0AFC10E9466
:102C0000640A8091020290910302909309078093D5
:102C10000807A4C1809104079091050721E0892B42
:102C200009F020E0322309F499C1809108079091BE
:102C300009074816590609F05DC0659B20C0209120
:102C400078008091790090E0982F8827820F911D5D
:102C500090930F0780930E0720910E0730910F0776
:102C600080910C0790910D072817390740F4809147
:102C70000E0790910F0790930D0780930C076E1627
:102C80007F0641F470920907609208078091D90687
:102C900085B964C10F8118850E171F0759F40E946A
:102CA000AC0D8091040290910502909309078093E6
:102CB000080754C129813A81E217F30759F40E94A9
:102CC000CE0C8091000290910102909309078093AD
:102CD000080744C14B815C81E417F50709F03EC148
:102CE00019D8809102029091030290930907809372
:102CF000080734C1809108079091090729883A880C
:102D00002816390609F05EC0659B20C02091780026
:102D10008091790090E0982F8827820F911D9093E1
:102D20000F0780930E0720910E0730910F078091B7
:102D30000C0790910D072817390740F480910E0772
:102D400090910F0790930D0780930C076E167F06E6
:102D500059F40E94AC0D8091060290910702909365
:102D6000090780930807FAC0EF80F884EE16FF0683
:102D700041F4F0920907E09208078091D90685B9DD
:102D8000EDC009811A81E017F10759F40E948A0EFB
:102D900080910002909101029093090780930807A7
:102DA000DDC02B813C81E217F30709F0D7C00E94F8
:102DB000CE0C8091020290910302909309078093B8
:102DC0000807CCC080910807909109074D815E816A
:102DD0004817590709F05EC0659B20C02091780014
:102DE0008091790090E0982F8827820F911D909311
:102DF0000F0780930E0720910E0730910F078091E7
:102E00000C0790910D072817390740F480910E07A1
:102E100090910F0790930D0780930C076E167F0615
:102E200059F40E94CE0C8091060290910702909373
:102E300009078093080792C08F8198858E179F0796
:102E400059F40E948A0E8091040290910502909399
:102E500009078093080782C029803A80E215F305AC
:102E600059F40E94AC0D8091000290910102909360
:102E700009078093080772C0EB80FC80EE15FF0500
:102E800009F06CC0F0920907E09208078091D9061A
:102E900085B964C080910807909109070817190740
:102EA00009F05CC0659B20C020917800809179007A
:102EB00090E0982F8827820F911D90930F078093A1
:102EC0000E0720910E0730910F0780910C0790910B
:102ED0000D072817390740F480910E0790910F07CE
:102EE00090930D0780930C076E167F0659F40E948D
:102EF0008A0E8091060290910702909309078093B1
:102F000008072CC00F8118850E171F0759F40E945F
:102F1000CE0C809104029091050290930907809352
:102F200008071CC029813A81E217F30741F4309366
:102F30000907209308078091D90685B90FC04B81F6
:102F40005C81E417F50751F40E94AC0D80910202F8
:102F500090910302909309078093080765960FB636
:102F6000F894DEBF0FBECDBFDF91CF911F910F91BF
:102F7000FF90EF90DF90CF90BF90AF909F908F9099
:102F80007F906F905F904F903F902F90089584B501
:102F9000836084BD84B5806884BD85B5826085BD4D
:102FA0008FE987BD0895AF92BF92CF92DF92EF92E3
:102FB000FF920F931F93CF93DF930E94C0010E9453
:102FC000F401E5DF0E94E0028091D90685B91092F4
:102FD0001807659B20C0209178008091790090E0CF
:102FE000982F8827820F911D90930F0780930E07CB
:102FF00020910E0730910F0780910C0790910D07DB
:103000002817390740F480910E0790910F0790938D
:103010000D0780930C0760910A0770910B07409190
:10302000140750911507209116073091170791E06A
:103030006417750709F090E081E02130310509F04F
:1030400080E08923A9F085E08093180780EA9FE05B
:103050000E941A028091D80685B9A12CB12CC12CEE
:10306000D12CE12CF12C00E010E0C0E0D0E0BBC09E
:1030700080911807823029F080911807882309F47D
:10308000A8CF10921807209178008091790090E0E5
:10309000982F8827820F911D90930F0780930E071A
:1030A00020910E0730910F0780910C0790910D072A
:1030B0002817390740F480910E0790910F079093DD
:1030C0000D0780930C074091040750910507E0918C
:1030D0000A07F0910B073196EE0FFF1FE55EF84FE0
:1030E00060817181E0910A07F0910B07EE0FFF1FDD
:1030F000E55EF84F808191810E94680F80911807EA
:10310000823009F4BECF65CFFE01EE0FFF1FE55EF2
:10311000F84F808191818230910569F018F4019710
:1031200039F014C08330910551F0049761F00EC05E
:103130000F5F1F4F0BC08FEFE81AF80A07C08FEF21
:10314000C81AD80A03C08FEFA81AB80A61E085E050
:103150000E94B80162E070E0C8010E94580161E07D
:1031600088E00E94B80162E070E0C7010E94580147
:1031700061E08BE00E94B80162E070E0C6010E944D
:10318000580161E08EE00E94B80162E070E0C50184
:103190000E94580160E080E00E94B8018AED96E04C
:1031A0000E944B0160E085E00E94B80185EE96E048
:1031B0000E944B0160E088E00E94B80188EE96E032
:1031C0000E944B0160E08BE00E94B8018BEE96E01C
:1031D0000E944B0160E08EE00E94B8018EEE96E006
:1031E0000E944B01219680910A0790910B07C81706
:1031F000D90708F489CF80E090E0DF91CF911F914B
:103200000F91FF90EF90DF90CF90BF90AF90089517
:103210001F920F920FB60F9211248F939F9381E00C
:1032200090E090931307809312078CB384608CBB5B
:103230009F918F910F900FBE0F901F9018951F9226
:103240000F920FB60F9211248F938091D80685B9F3
:1032500082E0809318078CB388608CBB8F910F90AD
:103260000FBE0F901F9018951F920F920FB60F92DE
:1032700011240BB60F922F923F924F925F926F9252
:103280007F928F929F92AF92BF92CF92DF92EF92F6
:10329000FF920F931F932F933F934F935F936F93DF
:1032A0007F938F939F93AF93BF93CF93DF93EF93CE
:1032B000FF9380E00E94050295B18091D806981393
:1032C00021C124C0FC01EE0FFF1FE55EF84F2081F5
:1032D00031812230310581F020F42130310541F077
:1032E00013C02330310561F02430310561F00CC08A
:1032F0002FEFC21AD20A08C02FEFE21AF20A04C056
:103300000F5F1F4F01C0219601960AC0C0E0D0E0B8
:1033100000E010E0E12CF12CC12CD12C80E090E0F9
:1033200020910A0730910B078217930758F280917A
:103330000A0790910B07212C312C412C512C612C28
:10334000712C812C912C26C0FC01EE0FFF1FE55E35
:10335000F84F208131812230310581F020F4213075
:10336000310541F016C02330310561F024303105BC
:1033700069F00FC02FEF821A920A0BC02FEF621A6A
:10338000720A07C02FEF421A520A03C02FEF221A07
:10339000320A01962091140730911507821793077E
:1033A00098F25601AE0CBF1CA00EB11EAC0EBD1E95
:1033B00060E081E00E94D30061E085E00E94B801F6
:1033C00062E070E0C4010E94580161E088E00E9460
:1033D000B80162E070E0C3010E94580161E08BE037
:1033E0000E94B80162E070E0C2010E94580161E0F1
:1033F0008EE00E94B80162E070E0C1010E945801B5
:1034000060E080E00E94B80181EF96E00E944B01ED
:1034100060E085E00E94B80185EE96E00E944B01D5
:1034200060E088E00E94B80188EE96E00E944B01BF
:1034300060E08BE00E94B8018BEE96E00E944B01A9
:1034400060E08EE00E94B8018EEE96E00E944B0193
:1034500080E29EE40E941A0261E085E00E94B801C9
:1034600062E070E0C6010E94580161E088E00E94BD
:10347000B80162E070E0C7010E94580161E08BE092
:103480000E94B80162E070E0C8010E94580161E04A
:103490008EE00E94B80162E070E0CE010E94580107
:1034A00061E080E00E94B80162E070E0C5010E9426
:1034B000580160E080E00E94B80186EF96E00E942B
:1034C0004B0160E085E00E94B80185EE96E00E9425
:1034D0004B0160E088E00E94B80188EE96E00E940F
:1034E0004B0160E08BE00E94B8018BEE96E00E94F9
:1034F0004B0160E08EE00E94B8018EEE96E00E94E3
:103500004B0110C060E081E00E94D30060E080E0E9
:103510000E94B8018BEF96E00E944B0188EE93E089
:103520000E941A028CB380618CBBFF91EF91DF91F6
:10353000CF91BF91AF919F918F917F916F915F914B
:103540004F913F912F911F910F91FF90EF90DF903E
:10355000CF90BF90AF909F908F907F906F905F9033
:103560004F903F902F900F900BBE0F900FBE0F907B
:103570001F9018951F920F920FB60F9211240BB641
:103580000F922F933F938F939F93EF93FF932091ED
:103590000C0730910D0780910C0290910D022817B5
:1035A000390728F4809100029091010224C02091F3
:1035B0000C0730910D0780910A0290910B02281799
:1035C000390728F4809102029091030214C02091DF
:1035D0000C0730910D07809108029091090228177D
:1035E000390728F4809106029091070204C0809167
:1035F000040290910502E0911407F0911507EE0F77
:10360000FF1FE55EF84F918380838FEF93E09093E7
:103610000D0780930C078091140790911507019670
:1036200090931507809314078091120790911307C8
:10363000019731F481E090E090931707809316078B
:103640008CB380628CBBFF91EF919F918F913F91E2
:103650002F910F900BBE0F900FBE0F901F901895DB
:1036600097FB072E16F4009406D077FD08D00BD0F8
:1036700007FC05D03EF4909581959F4F0895709575
:1036800061957F4F0895AA1BBB1B51E107C0AA1F7C
:10369000BB1FA617B70710F0A61BB70B881F991FF3
:1036A0005A95A9F780959095BC01CD010895F8949D
:0236B000FFCF4A
:1036B20004000300020001008303EE02FA0023006B
:1036C2002B2D1D1B2B2D1D1B2B002B002B002B002C
:1036D2002B002B002B002B002B002B002B002B0090
:1036E2002B002B002B002A002A002A002A002A0085
:1036F2002A002A002A002A002A002A002A002A0078
:103702002A002A002A002A002A002A002A002A0067
:103712002A002B002B002B002B002B002B002B0050
:103722002B002B002B002B002B002B002B002B003F
:103732002B002B002B002B002B002B002B002B002F
:103742002B002B002B002B002B002B002B002B001F
:103752002B002B002B002B002B002B002B002B000F
:103762002B002B002B002B002B002B002B002B00FF
:103772002B002B002B002B002B002B002B002B00EF
:103782002B002B002B002B002B002B002B002B00DF
:103792002B0014002B002B002B002B002B002B00E6
:1037A2002B002B002B002B002B002B002B002B00BF
:1037B2002B002B002B002B002B002B002B002B00AF
:1037C2002B002B002B002B002B002B002B002B009F
:1037D2002B002B002B002B002B002B002B002B008F
:1037E2002B002B002B002B002B002B002B002B007F
:1037F2002B002B002B002B002B002B002B00820018
:1038020082007F00780071006A0063005C0055004E
:103812004E00470040003900330030002E002D00DA
:103822002C002B002B002B002A002A002A002A0041
:103832002A002A002A002A002A002A002A002A0036
:103842002A002A002A002A002A002A002A002A0026
:103852002A002A002A002A002A002A002A002A0016
:103862002A002A002A002A002A002A002A002A0006
:103872002A002A002A002A002A002A002A002A00F6
:103882002A002A002A002A002A002A002A002A00E6
:103892002A002A002A002A002A002A002B002B00D4
:1038A2002B002B002B002B002B002B002B002B00BE
:1038B2002B002B002B002B002B002B002B002B00AE
:1038C2002B002B002B002B002B0014008200820007
:1038D2007F00780071006A0063005C0055004E00B2
:1038E200470040003900320030002F002F002E0028
:1038F2002E002D002D002C002C002C002B002B0064
:103902002B002B002B002B002B002B002B002B005D
:103912002B002B002B002B002B002B002B002B004D
:103922002B002B002B002B002B002B002B002B003D
:103932002B002B002B002B002B002B002B002B002D
:103942002B002B002B002B002B002B002B002B001D
:103952002B002B002B002B002B002A002A002A0010
:103962002A002A002A002A002A002A002A002A0005
:103972002A002A002A002A002A002A002A002A00F5
:103982002A002A002A002A002A002A002A002A00E5
:103992002A002A002A002A002A002A002A002A00D5
:1039A2002A002A002A002A002A002A002A002A00C5
:1039B2002A002A002A002A002A002A002A002A00B5
:1039C2002A002A002A002A002A002A002A002B00A4
:1039D2002B002B002C002C002D002E002F002F007E
:1039E20030003900400047004E0055005C00630083
:1039F2006A007100820082002B002B002B002B003A
:103A02002B002B002B002B002B002B002B002B005C
:103A12002B002B002B002B002B002B002B002B004C
:103A22002B002B002B002B002B002B002C002C003A
:103A32002C002D002D002E002E002F002F00300014
:103A420032003900400047004E0055005C00630020
:103A52006A00710078007F0082008200820082008A
:103A62007F00780071006A0063005C0055004E0020
:103A7200470040003900330030002E002D002C009A
:103A82002B002B002B002A002A002A002A002A00E1
:103A92002A002A002A002A002A002A002A002A00D4
:103AA2002A002A002A002A002A002A002A002A00C4
:103AB2002A002A002A002A002A002A002A002A00B4
:103AC2002A002A002A002A002A002A002A002A00A4
:103AD2002A002A002A002A002A002A002A002A0094
:103AE2002A002A002A002A002A002A002A002A0084
:103AF2002A002A002A002A002A002B002B002B0071
:103B02002C002C002D002E002F002F003000390039
:103B1200400047004E0055005C0063006A007100DF
:103B220082008200820082007F00780071006A00B9
:103B320063005C0055004E0047004000390032002F
:103B420030002F002F002E002E002D002D002C0003
:103B52002C002C002B002B002C002C002C002D0004
:103B62002D002E002E002F002F00300032003900D1
:103B7200400047004E0055005C0063006A0071007F
:103B820078007F00820082000F0E46494E414C2091
:103B9200534F525400573A00423A00533A00413AC6
:103BA2000042454C5400545241590052554E4E4920
:043BB2004E4700007A
:00000001FF
